{
  "_format": "hh-sol-artifact-1",
  "contractName": "Pool",
  "sourceName": "contracts/Pool.sol",
  "abi": [
    {
      "inputs": [
        {
          "internalType": "address",
          "name": "_token",
          "type": "address"
        },
        {
          "internalType": "address",
          "name": "_rewardToken",
          "type": "address"
        }
      ],
      "stateMutability": "nonpayable",
      "type": "constructor"
    },
    {
      "anonymous": false,
      "inputs": [
        {
          "indexed": true,
          "internalType": "address",
          "name": "user",
          "type": "address"
        },
        {
          "indexed": false,
          "internalType": "uint256",
          "name": "amount",
          "type": "uint256"
        }
      ],
      "name": "Deposited",
      "type": "event"
    },
    {
      "anonymous": false,
      "inputs": [
        {
          "indexed": true,
          "internalType": "address",
          "name": "previousOwner",
          "type": "address"
        },
        {
          "indexed": true,
          "internalType": "address",
          "name": "newOwner",
          "type": "address"
        }
      ],
      "name": "OwnershipTransferred",
      "type": "event"
    },
    {
      "inputs": [],
      "name": "_totalSupply",
      "outputs": [
        {
          "internalType": "uint256",
          "name": "",
          "type": "uint256"
        }
      ],
      "stateMutability": "view",
      "type": "function"
    },
    {
      "inputs": [
        {
          "internalType": "address",
          "name": "_account",
          "type": "address"
        }
      ],
      "name": "balanceOf",
      "outputs": [
        {
          "internalType": "uint256",
          "name": "",
          "type": "uint256"
        }
      ],
      "stateMutability": "view",
      "type": "function"
    },
    {
      "inputs": [
        {
          "internalType": "uint256",
          "name": "_amount",
          "type": "uint256"
        }
      ],
      "name": "deposit",
      "outputs": [
        {
          "internalType": "bool",
          "name": "",
          "type": "bool"
        }
      ],
      "stateMutability": "nonpayable",
      "type": "function"
    },
    {
      "inputs": [],
      "name": "maxSupply",
      "outputs": [
        {
          "internalType": "uint256",
          "name": "",
          "type": "uint256"
        }
      ],
      "stateMutability": "view",
      "type": "function"
    },
    {
      "inputs": [],
      "name": "owner",
      "outputs": [
        {
          "internalType": "address",
          "name": "",
          "type": "address"
        }
      ],
      "stateMutability": "view",
      "type": "function"
    },
    {
      "inputs": [],
      "name": "renounceOwnership",
      "outputs": [],
      "stateMutability": "nonpayable",
      "type": "function"
    },
    {
      "inputs": [],
      "name": "rewardToken",
      "outputs": [
        {
          "internalType": "contract IERC20",
          "name": "",
          "type": "address"
        }
      ],
      "stateMutability": "view",
      "type": "function"
    },
    {
      "inputs": [],
      "name": "token",
      "outputs": [
        {
          "internalType": "contract IERC20",
          "name": "",
          "type": "address"
        }
      ],
      "stateMutability": "view",
      "type": "function"
    },
    {
      "inputs": [],
      "name": "totalSupply",
      "outputs": [
        {
          "internalType": "uint256",
          "name": "",
          "type": "uint256"
        }
      ],
      "stateMutability": "view",
      "type": "function"
    },
    {
      "inputs": [
        {
          "internalType": "address",
          "name": "newOwner",
          "type": "address"
        }
      ],
      "name": "transferOwnership",
      "outputs": [],
      "stateMutability": "nonpayable",
      "type": "function"
    }
  ],
  "bytecode": "0x608060405269d3c21bcecceda10000006003553480156200001f57600080fd5b50604051620017b1380380620017b183398181016040528101906200004591906200027d565b62000065620000596200018360201b60201c565b6200018b60201b60201c565b81600160006101000a81548173ffffffffffffffffffffffffffffffffffffffff021916908373ffffffffffffffffffffffffffffffffffffffff16021790555080600260006101000a81548173ffffffffffffffffffffffffffffffffffffffff021916908373ffffffffffffffffffffffffffffffffffffffff1602179055508073ffffffffffffffffffffffffffffffffffffffff1663a0712d686003546040518263ffffffff1660e01b8152600401620001249190620002fb565b602060405180830381600087803b1580156200013f57600080fd5b505af115801562000154573d6000803e3d6000fd5b505050506040513d601f19601f820116820180604052508101906200017a9190620002be565b50505062000396565b600033905090565b60008060009054906101000a900473ffffffffffffffffffffffffffffffffffffffff169050816000806101000a81548173ffffffffffffffffffffffffffffffffffffffff021916908373ffffffffffffffffffffffffffffffffffffffff1602179055508173ffffffffffffffffffffffffffffffffffffffff168173ffffffffffffffffffffffffffffffffffffffff167f8be0079c531659141344cd1fd0a4f28419497f9722a3daafe3b4186f6b6457e060405160405180910390a35050565b600081519050620002608162000362565b92915050565b60008151905062000277816200037c565b92915050565b600080604083850312156200029157600080fd5b6000620002a1858286016200024f565b9250506020620002b4858286016200024f565b9150509250929050565b600060208284031215620002d157600080fd5b6000620002e18482850162000266565b91505092915050565b620002f58162000358565b82525050565b6000602082019050620003126000830184620002ea565b92915050565b6000620003258262000338565b9050919050565b60008115159050919050565b600073ffffffffffffffffffffffffffffffffffffffff82169050919050565b6000819050919050565b6200036d8162000318565b81146200037957600080fd5b50565b62000387816200032c565b81146200039357600080fd5b50565b61140b80620003a66000396000f3fe608060405234801561001057600080fd5b506004361061009e5760003560e01c8063b6b55f2511610066578063b6b55f2514610137578063d5abeb0114610167578063f2fde38b14610185578063f7c618c1146101a1578063fc0c546a146101bf5761009e565b806318160ddd146100a35780633eaaf86b146100c157806370a08231146100df578063715018a61461010f5780638da5cb5b14610119575b600080fd5b6100ab6101dd565b6040516100b89190611080565b60405180910390f35b6100c96101e7565b6040516100d69190611080565b60405180910390f35b6100f960048036038101906100f49190610c91565b6101ed565b6040516101069190611080565b60405180910390f35b610117610236565b005b6101216102be565b60405161012e9190610ec4565b60405180910390f35b610151600480360381019061014c9190610ce3565b6102e7565b60405161015e9190610f68565b60405180910390f35b61016f610527565b60405161017c9190611080565b60405180910390f35b61019f600480360381019061019a9190610c91565b61052d565b005b6101a9610625565b6040516101b69190610f83565b60405180910390f35b6101c761064b565b6040516101d49190610f83565b60405180910390f35b6000600454905090565b60045481565b6000600560008373ffffffffffffffffffffffffffffffffffffffff1673ffffffffffffffffffffffffffffffffffffffff168152602001908152602001600020549050919050565b61023e610671565b73ffffffffffffffffffffffffffffffffffffffff1661025c6102be565b73ffffffffffffffffffffffffffffffffffffffff16146102b2576040517f08c379a00000000000000000000000000000000000000000000000000000000081526004016102a990611000565b60405180910390fd5b6102bc6000610679565b565b60008060009054906101000a900473ffffffffffffffffffffffffffffffffffffffff16905090565b60006102fe8260045461073d90919063ffffffff16565b60048190555061035682600560003373ffffffffffffffffffffffffffffffffffffffff1673ffffffffffffffffffffffffffffffffffffffff1681526020019081526020016000205461073d90919063ffffffff16565b600560003373ffffffffffffffffffffffffffffffffffffffff1673ffffffffffffffffffffffffffffffffffffffff168152602001908152602001600020819055506103e8333084600160009054906101000a900473ffffffffffffffffffffffffffffffffffffffff1673ffffffffffffffffffffffffffffffffffffffff16610753909392919063ffffffff16565b610436336000600260009054906101000a900473ffffffffffffffffffffffffffffffffffffffff1673ffffffffffffffffffffffffffffffffffffffff166107dc9092919063ffffffff16565b6104833383600260009054906101000a900473ffffffffffffffffffffffffffffffffffffffff1673ffffffffffffffffffffffffffffffffffffffff166107dc9092919063ffffffff16565b6104d03383600260009054906101000a900473ffffffffffffffffffffffffffffffffffffffff1673ffffffffffffffffffffffffffffffffffffffff1661093a9092919063ffffffff16565b3373ffffffffffffffffffffffffffffffffffffffff167f2da466a7b24304f47e87fa2e1e5a81b9831ce54fec19055ce277ca2f39ba42c4836040516105169190611080565b60405180910390a260019050919050565b60035481565b610535610671565b73ffffffffffffffffffffffffffffffffffffffff166105536102be565b73ffffffffffffffffffffffffffffffffffffffff16146105a9576040517f08c379a00000000000000000000000000000000000000000000000000000000081526004016105a090611000565b60405180910390fd5b600073ffffffffffffffffffffffffffffffffffffffff168173ffffffffffffffffffffffffffffffffffffffff161415610619576040517f08c379a000000000000000000000000000000000000000000000000000000000815260040161061090610fc0565b60405180910390fd5b61062281610679565b50565b600260009054906101000a900473ffffffffffffffffffffffffffffffffffffffff1681565b600160009054906101000a900473ffffffffffffffffffffffffffffffffffffffff1681565b600033905090565b60008060009054906101000a900473ffffffffffffffffffffffffffffffffffffffff169050816000806101000a81548173ffffffffffffffffffffffffffffffffffffffff021916908373ffffffffffffffffffffffffffffffffffffffff1602179055508173ffffffffffffffffffffffffffffffffffffffff168173ffffffffffffffffffffffffffffffffffffffff167f8be0079c531659141344cd1fd0a4f28419497f9722a3daafe3b4186f6b6457e060405160405180910390a35050565b6000818361074b91906110cd565b905092915050565b6107d6846323b872dd60e01b85858560405160240161077493929190610f08565b604051602081830303815290604052907bffffffffffffffffffffffffffffffffffffffffffffffffffffffff19166020820180517bffffffffffffffffffffffffffffffffffffffffffffffffffffffff83818316178352505050506109c0565b50505050565b6000811480610875575060008373ffffffffffffffffffffffffffffffffffffffff1663dd62ed3e30856040518363ffffffff1660e01b8152600401610823929190610edf565b60206040518083038186803b15801561083b57600080fd5b505afa15801561084f573d6000803e3d6000fd5b505050506040513d601f19601f820116820180604052508101906108739190610d0c565b145b6108b4576040517f08c379a00000000000000000000000000000000000000000000000000000000081526004016108ab90611060565b60405180910390fd5b6109358363095ea7b360e01b84846040516024016108d3929190610f3f565b604051602081830303815290604052907bffffffffffffffffffffffffffffffffffffffffffffffffffffffff19166020820180517bffffffffffffffffffffffffffffffffffffffffffffffffffffffff83818316178352505050506109c0565b505050565b6109bb8363a9059cbb60e01b8484604051602401610959929190610f3f565b604051602081830303815290604052907bffffffffffffffffffffffffffffffffffffffffffffffffffffffff19166020820180517bffffffffffffffffffffffffffffffffffffffffffffffffffffffff83818316178352505050506109c0565b505050565b6000610a22826040518060400160405280602081526020017f5361666545524332303a206c6f772d6c6576656c2063616c6c206661696c65648152508573ffffffffffffffffffffffffffffffffffffffff16610a879092919063ffffffff16565b9050600081511115610a825780806020019051810190610a429190610cba565b610a81576040517f08c379a0000000000000000000000000000000000000000000000000000000008152600401610a7890611040565b60405180910390fd5b5b505050565b6060610a968484600085610a9f565b90509392505050565b606082471015610ae4576040517f08c379a0000000000000000000000000000000000000000000000000000000008152600401610adb90610fe0565b60405180910390fd5b610aed85610bb3565b610b2c576040517f08c379a0000000000000000000000000000000000000000000000000000000008152600401610b2390611020565b60405180910390fd5b6000808673ffffffffffffffffffffffffffffffffffffffff168587604051610b559190610ead565b60006040518083038185875af1925050503d8060008114610b92576040519150601f19603f3d011682016040523d82523d6000602084013e610b97565b606091505b5091509150610ba7828286610bd6565b92505050949350505050565b6000808273ffffffffffffffffffffffffffffffffffffffff163b119050919050565b60608315610be657829050610c36565b600083511115610bf95782518084602001fd5b816040517f08c379a0000000000000000000000000000000000000000000000000000000008152600401610c2d9190610f9e565b60405180910390fd5b9392505050565b600081359050610c4c81611390565b92915050565b600081519050610c61816113a7565b92915050565b600081359050610c76816113be565b92915050565b600081519050610c8b816113be565b92915050565b600060208284031215610ca357600080fd5b6000610cb184828501610c3d565b91505092915050565b600060208284031215610ccc57600080fd5b6000610cda84828501610c52565b91505092915050565b600060208284031215610cf557600080fd5b6000610d0384828501610c67565b91505092915050565b600060208284031215610d1e57600080fd5b6000610d2c84828501610c7c565b91505092915050565b610d3e81611123565b82525050565b610d4d81611135565b82525050565b6000610d5e8261109b565b610d6881856110b1565b9350610d7881856020860161118f565b80840191505092915050565b610d8d8161116b565b82525050565b6000610d9e826110a6565b610da881856110bc565b9350610db881856020860161118f565b610dc1816111f1565b840191505092915050565b6000610dd96026836110bc565b9150610de482611202565b604082019050919050565b6000610dfc6026836110bc565b9150610e0782611251565b604082019050919050565b6000610e1f6020836110bc565b9150610e2a826112a0565b602082019050919050565b6000610e42601d836110bc565b9150610e4d826112c9565b602082019050919050565b6000610e65602a836110bc565b9150610e70826112f2565b604082019050919050565b6000610e886036836110bc565b9150610e9382611341565b604082019050919050565b610ea781611161565b82525050565b6000610eb98284610d53565b915081905092915050565b6000602082019050610ed96000830184610d35565b92915050565b6000604082019050610ef46000830185610d35565b610f016020830184610d35565b9392505050565b6000606082019050610f1d6000830186610d35565b610f2a6020830185610d35565b610f376040830184610e9e565b949350505050565b6000604082019050610f546000830185610d35565b610f616020830184610e9e565b9392505050565b6000602082019050610f7d6000830184610d44565b92915050565b6000602082019050610f986000830184610d84565b92915050565b60006020820190508181036000830152610fb88184610d93565b905092915050565b60006020820190508181036000830152610fd981610dcc565b9050919050565b60006020820190508181036000830152610ff981610def565b9050919050565b6000602082019050818103600083015261101981610e12565b9050919050565b6000602082019050818103600083015261103981610e35565b9050919050565b6000602082019050818103600083015261105981610e58565b9050919050565b6000602082019050818103600083015261107981610e7b565b9050919050565b60006020820190506110956000830184610e9e565b92915050565b600081519050919050565b600081519050919050565b600081905092915050565b600082825260208201905092915050565b60006110d882611161565b91506110e383611161565b9250827fffffffffffffffffffffffffffffffffffffffffffffffffffffffffffffffff03821115611118576111176111c2565b5b828201905092915050565b600061112e82611141565b9050919050565b60008115159050919050565b600073ffffffffffffffffffffffffffffffffffffffff82169050919050565b6000819050919050565b60006111768261117d565b9050919050565b600061118882611141565b9050919050565b60005b838110156111ad578082015181840152602081019050611192565b838111156111bc576000848401525b50505050565b7f4e487b7100000000000000000000000000000000000000000000000000000000600052601160045260246000fd5b6000601f19601f8301169050919050565b7f4f776e61626c653a206e6577206f776e657220697320746865207a65726f206160008201527f6464726573730000000000000000000000000000000000000000000000000000602082015250565b7f416464726573733a20696e73756666696369656e742062616c616e636520666f60008201527f722063616c6c0000000000000000000000000000000000000000000000000000602082015250565b7f4f776e61626c653a2063616c6c6572206973206e6f7420746865206f776e6572600082015250565b7f416464726573733a2063616c6c20746f206e6f6e2d636f6e7472616374000000600082015250565b7f5361666545524332303a204552433230206f7065726174696f6e20646964206e60008201527f6f74207375636365656400000000000000000000000000000000000000000000602082015250565b7f5361666545524332303a20617070726f76652066726f6d206e6f6e2d7a65726f60008201527f20746f206e6f6e2d7a65726f20616c6c6f77616e636500000000000000000000602082015250565b61139981611123565b81146113a457600080fd5b50565b6113b081611135565b81146113bb57600080fd5b50565b6113c781611161565b81146113d257600080fd5b5056fea26469706673582212209bc0681322435d1d3be735f6985ea13f0fd0f216c37c4c1d441632a1e0aef5c864736f6c63430008040033",
  "linkReferences": {},
  "deployedLinkReferences": {}
}