{
  "_format": "hh-sol-artifact-1",
  "contractName": "SampleVeToken",
  "sourceName": "contracts/tokens/SampleVeToken.sol",
  "abi": [
    {
      "inputs": [
        {
          "internalType": "address",
          "name": "_operator",
          "type": "address"
        }
      ],
      "stateMutability": "nonpayable",
      "type": "constructor"
    },
    {
      "anonymous": false,
      "inputs": [
        {
          "indexed": true,
          "internalType": "address",
          "name": "owner",
          "type": "address"
        },
        {
          "indexed": true,
          "internalType": "address",
          "name": "spender",
          "type": "address"
        },
        {
          "indexed": false,
          "internalType": "uint256",
          "name": "value",
          "type": "uint256"
        }
      ],
      "name": "Approval",
      "type": "event"
    },
    {
      "anonymous": false,
      "inputs": [
        {
          "indexed": true,
          "internalType": "address",
          "name": "previousOwner",
          "type": "address"
        },
        {
          "indexed": true,
          "internalType": "address",
          "name": "newOwner",
          "type": "address"
        }
      ],
      "name": "OwnershipTransferred",
      "type": "event"
    },
    {
      "anonymous": false,
      "inputs": [
        {
          "indexed": true,
          "internalType": "address",
          "name": "from",
          "type": "address"
        },
        {
          "indexed": true,
          "internalType": "address",
          "name": "to",
          "type": "address"
        },
        {
          "indexed": false,
          "internalType": "uint256",
          "name": "value",
          "type": "uint256"
        }
      ],
      "name": "Transfer",
      "type": "event"
    },
    {
      "inputs": [
        {
          "internalType": "address",
          "name": "owner",
          "type": "address"
        },
        {
          "internalType": "address",
          "name": "spender",
          "type": "address"
        }
      ],
      "name": "allowance",
      "outputs": [
        {
          "internalType": "uint256",
          "name": "",
          "type": "uint256"
        }
      ],
      "stateMutability": "view",
      "type": "function"
    },
    {
      "inputs": [
        {
          "internalType": "address",
          "name": "spender",
          "type": "address"
        },
        {
          "internalType": "uint256",
          "name": "amount",
          "type": "uint256"
        }
      ],
      "name": "approve",
      "outputs": [
        {
          "internalType": "bool",
          "name": "",
          "type": "bool"
        }
      ],
      "stateMutability": "nonpayable",
      "type": "function"
    },
    {
      "inputs": [
        {
          "internalType": "address",
          "name": "account",
          "type": "address"
        }
      ],
      "name": "balanceOf",
      "outputs": [
        {
          "internalType": "uint256",
          "name": "",
          "type": "uint256"
        }
      ],
      "stateMutability": "view",
      "type": "function"
    },
    {
      "inputs": [],
      "name": "decimals",
      "outputs": [
        {
          "internalType": "uint8",
          "name": "",
          "type": "uint8"
        }
      ],
      "stateMutability": "view",
      "type": "function"
    },
    {
      "inputs": [
        {
          "internalType": "address",
          "name": "spender",
          "type": "address"
        },
        {
          "internalType": "uint256",
          "name": "subtractedValue",
          "type": "uint256"
        }
      ],
      "name": "decreaseAllowance",
      "outputs": [
        {
          "internalType": "bool",
          "name": "",
          "type": "bool"
        }
      ],
      "stateMutability": "nonpayable",
      "type": "function"
    },
    {
      "inputs": [
        {
          "internalType": "address",
          "name": "spender",
          "type": "address"
        },
        {
          "internalType": "uint256",
          "name": "addedValue",
          "type": "uint256"
        }
      ],
      "name": "increaseAllowance",
      "outputs": [
        {
          "internalType": "bool",
          "name": "",
          "type": "bool"
        }
      ],
      "stateMutability": "nonpayable",
      "type": "function"
    },
    {
      "inputs": [
        {
          "internalType": "address",
          "name": "_to",
          "type": "address"
        },
        {
          "internalType": "uint256",
          "name": "_amount",
          "type": "uint256"
        }
      ],
      "name": "mint",
      "outputs": [
        {
          "internalType": "bool",
          "name": "",
          "type": "bool"
        }
      ],
      "stateMutability": "nonpayable",
      "type": "function"
    },
    {
      "inputs": [
        {
          "internalType": "uint256",
          "name": "_amount",
          "type": "uint256"
        }
      ],
      "name": "mint",
      "outputs": [
        {
          "internalType": "bool",
          "name": "",
          "type": "bool"
        }
      ],
      "stateMutability": "nonpayable",
      "type": "function"
    },
    {
      "inputs": [],
      "name": "name",
      "outputs": [
        {
          "internalType": "string",
          "name": "",
          "type": "string"
        }
      ],
      "stateMutability": "view",
      "type": "function"
    },
    {
      "inputs": [],
      "name": "operator",
      "outputs": [
        {
          "internalType": "address",
          "name": "",
          "type": "address"
        }
      ],
      "stateMutability": "view",
      "type": "function"
    },
    {
      "inputs": [],
      "name": "owner",
      "outputs": [
        {
          "internalType": "address",
          "name": "",
          "type": "address"
        }
      ],
      "stateMutability": "view",
      "type": "function"
    },
    {
      "inputs": [],
      "name": "renounceOwnership",
      "outputs": [],
      "stateMutability": "nonpayable",
      "type": "function"
    },
    {
      "inputs": [
        {
          "internalType": "address",
          "name": "_operator",
          "type": "address"
        }
      ],
      "name": "setOperator",
      "outputs": [],
      "stateMutability": "nonpayable",
      "type": "function"
    },
    {
      "inputs": [],
      "name": "symbol",
      "outputs": [
        {
          "internalType": "string",
          "name": "",
          "type": "string"
        }
      ],
      "stateMutability": "view",
      "type": "function"
    },
    {
      "inputs": [],
      "name": "totalSupply",
      "outputs": [
        {
          "internalType": "uint256",
          "name": "",
          "type": "uint256"
        }
      ],
      "stateMutability": "view",
      "type": "function"
    },
    {
      "inputs": [
        {
          "internalType": "address",
          "name": "to",
          "type": "address"
        },
        {
          "internalType": "uint256",
          "name": "amount",
          "type": "uint256"
        }
      ],
      "name": "transfer",
      "outputs": [
        {
          "internalType": "bool",
          "name": "",
          "type": "bool"
        }
      ],
      "stateMutability": "nonpayable",
      "type": "function"
    },
    {
      "inputs": [
        {
          "internalType": "address",
          "name": "from",
          "type": "address"
        },
        {
          "internalType": "address",
          "name": "to",
          "type": "address"
        },
        {
          "internalType": "uint256",
          "name": "amount",
          "type": "uint256"
        }
      ],
      "name": "transferFrom",
      "outputs": [
        {
          "internalType": "bool",
          "name": "",
          "type": "bool"
        }
      ],
      "stateMutability": "nonpayable",
      "type": "function"
    },
    {
      "inputs": [
        {
          "internalType": "address",
          "name": "newOwner",
          "type": "address"
        }
      ],
      "name": "transferOwnership",
      "outputs": [],
      "stateMutability": "nonpayable",
      "type": "function"
    }
  ],
  "bytecode": "0x60806040523480156200001157600080fd5b5060405162001efb38038062001efb8339818101604052810190620000379190620002d4565b6040518060400160405280601881526020017f53616d706c6520566f746520457363726f7720546f6b656e00000000000000008152506040518060400160405280600d81526020017f53414d504c457665544f4b454e000000000000000000000000000000000000008152508160039080519060200190620000bb9291906200020d565b508060049080519060200190620000d49291906200020d565b505050620000f7620000eb6200013f60201b60201c565b6200014760201b60201c565b80600660006101000a81548173ffffffffffffffffffffffffffffffffffffffff021916908373ffffffffffffffffffffffffffffffffffffffff16021790555050620003b3565b600033905090565b6000600560009054906101000a900473ffffffffffffffffffffffffffffffffffffffff16905081600560006101000a81548173ffffffffffffffffffffffffffffffffffffffff021916908373ffffffffffffffffffffffffffffffffffffffff1602179055508173ffffffffffffffffffffffffffffffffffffffff168173ffffffffffffffffffffffffffffffffffffffff167f8be0079c531659141344cd1fd0a4f28419497f9722a3daafe3b4186f6b6457e060405160405180910390a35050565b8280546200021b9062000334565b90600052602060002090601f0160209004810192826200023f57600085556200028b565b82601f106200025a57805160ff19168380011785556200028b565b828001600101855582156200028b579182015b828111156200028a5782518255916020019190600101906200026d565b5b5090506200029a91906200029e565b5090565b5b80821115620002b95760008160009055506001016200029f565b5090565b600081519050620002ce8162000399565b92915050565b600060208284031215620002e757600080fd5b6000620002f784828501620002bd565b91505092915050565b60006200030d8262000314565b9050919050565b600073ffffffffffffffffffffffffffffffffffffffff82169050919050565b600060028204905060018216806200034d57607f821691505b602082108114156200036457620003636200036a565b5b50919050565b7f4e487b7100000000000000000000000000000000000000000000000000000000600052602260045260246000fd5b620003a48162000300565b8114620003b057600080fd5b50565b611b3880620003c36000396000f3fe608060405234801561001057600080fd5b50600436106101165760003560e01c8063715018a6116100a2578063a457c2d711610071578063a457c2d7146102f9578063a9059cbb14610329578063b3ab15fb14610359578063dd62ed3e14610375578063f2fde38b146103a557610116565b8063715018a6146102835780638da5cb5b1461028d57806395d89b41146102ab578063a0712d68146102c957610116565b8063313ce567116100e9578063313ce567146101b757806339509351146101d557806340c10f1914610205578063570ca7351461023557806370a082311461025357610116565b806306fdde031461011b578063095ea7b31461013957806318160ddd1461016957806323b872dd14610187575b600080fd5b6101236103c1565b60405161013091906114b4565b60405180910390f35b610153600480360381019061014e9190611223565b610453565b6040516101609190611499565b60405180910390f35b610171610476565b60405161017e9190611636565b60405180910390f35b6101a1600480360381019061019c91906111d4565b610480565b6040516101ae9190611499565b60405180910390f35b6101bf6104af565b6040516101cc9190611651565b60405180910390f35b6101ef60048036038101906101ea9190611223565b6104b8565b6040516101fc9190611499565b60405180910390f35b61021f600480360381019061021a9190611223565b6104ef565b60405161022c9190611499565b60405180910390f35b61023d610595565b60405161024a919061147e565b60405180910390f35b61026d6004803603810190610268919061116f565b6105bb565b60405161027a9190611636565b60405180910390f35b61028b610603565b005b61029561068b565b6040516102a2919061147e565b60405180910390f35b6102b36106b5565b6040516102c091906114b4565b60405180910390f35b6102e360048036038101906102de919061125f565b610747565b6040516102f09190611499565b60405180910390f35b610313600480360381019061030e9190611223565b61075c565b6040516103209190611499565b60405180910390f35b610343600480360381019061033e9190611223565b6107d3565b6040516103509190611499565b60405180910390f35b610373600480360381019061036e919061116f565b6107f6565b005b61038f600480360381019061038a9190611198565b6108b6565b60405161039c9190611636565b60405180910390f35b6103bf60048036038101906103ba919061116f565b61093d565b005b6060600380546103d090611766565b80601f01602080910402602001604051908101604052809291908181526020018280546103fc90611766565b80156104495780601f1061041e57610100808354040283529160200191610449565b820191906000526020600020905b81548152906001019060200180831161042c57829003601f168201915b5050505050905090565b60008061045e610a35565b905061046b818585610a3d565b600191505092915050565b6000600254905090565b60008061048b610a35565b9050610498858285610c08565b6104a3858585610c94565b60019150509392505050565b60006012905090565b6000806104c3610a35565b90506104e48185856104d585896108b6565b6104df9190611688565b610a3d565b600191505092915050565b6000600660009054906101000a900473ffffffffffffffffffffffffffffffffffffffff1673ffffffffffffffffffffffffffffffffffffffff163373ffffffffffffffffffffffffffffffffffffffff1614610581576040517f08c379a0000000000000000000000000000000000000000000000000000000008152600401610578906115d6565b60405180910390fd5b61058b8383610f15565b6001905092915050565b600660009054906101000a900473ffffffffffffffffffffffffffffffffffffffff1681565b60008060008373ffffffffffffffffffffffffffffffffffffffff1673ffffffffffffffffffffffffffffffffffffffff168152602001908152602001600020549050919050565b61060b610a35565b73ffffffffffffffffffffffffffffffffffffffff1661062961068b565b73ffffffffffffffffffffffffffffffffffffffff161461067f576040517f08c379a000000000000000000000000000000000000000000000000000000000815260040161067690611576565b60405180910390fd5b6106896000611075565b565b6000600560009054906101000a900473ffffffffffffffffffffffffffffffffffffffff16905090565b6060600480546106c490611766565b80601f01602080910402602001604051908101604052809291908181526020018280546106f090611766565b801561073d5780601f106107125761010080835404028352916020019161073d565b820191906000526020600020905b81548152906001019060200180831161072057829003601f168201915b5050505050905090565b60006107533383610f15565b60019050919050565b600080610767610a35565b9050600061077582866108b6565b9050838110156107ba576040517f08c379a00000000000000000000000000000000000000000000000000000000081526004016107b1906115f6565b60405180910390fd5b6107c78286868403610a3d565b60019250505092915050565b6000806107de610a35565b90506107eb818585610c94565b600191505092915050565b6107fe610a35565b73ffffffffffffffffffffffffffffffffffffffff1661081c61068b565b73ffffffffffffffffffffffffffffffffffffffff1614610872576040517f08c379a000000000000000000000000000000000000000000000000000000000815260040161086990611576565b60405180910390fd5b80600660006101000a81548173ffffffffffffffffffffffffffffffffffffffff021916908373ffffffffffffffffffffffffffffffffffffffff16021790555050565b6000600160008473ffffffffffffffffffffffffffffffffffffffff1673ffffffffffffffffffffffffffffffffffffffff16815260200190815260200160002060008373ffffffffffffffffffffffffffffffffffffffff1673ffffffffffffffffffffffffffffffffffffffff16815260200190815260200160002054905092915050565b610945610a35565b73ffffffffffffffffffffffffffffffffffffffff1661096361068b565b73ffffffffffffffffffffffffffffffffffffffff16146109b9576040517f08c379a00000000000000000000000000000000000000000000000000000000081526004016109b090611576565b60405180910390fd5b600073ffffffffffffffffffffffffffffffffffffffff168173ffffffffffffffffffffffffffffffffffffffff161415610a29576040517f08c379a0000000000000000000000000000000000000000000000000000000008152600401610a20906114f6565b60405180910390fd5b610a3281611075565b50565b600033905090565b600073ffffffffffffffffffffffffffffffffffffffff168373ffffffffffffffffffffffffffffffffffffffff161415610aad576040517f08c379a0000000000000000000000000000000000000000000000000000000008152600401610aa4906115b6565b60405180910390fd5b600073ffffffffffffffffffffffffffffffffffffffff168273ffffffffffffffffffffffffffffffffffffffff161415610b1d576040517f08c379a0000000000000000000000000000000000000000000000000000000008152600401610b1490611516565b60405180910390fd5b80600160008573ffffffffffffffffffffffffffffffffffffffff1673ffffffffffffffffffffffffffffffffffffffff16815260200190815260200160002060008473ffffffffffffffffffffffffffffffffffffffff1673ffffffffffffffffffffffffffffffffffffffff168152602001908152602001600020819055508173ffffffffffffffffffffffffffffffffffffffff168373ffffffffffffffffffffffffffffffffffffffff167f8c5be1e5ebec7d5bd14f71427d1e84f3dd0314c0f7b2291e5b200ac8c7c3b92583604051610bfb9190611636565b60405180910390a3505050565b6000610c1484846108b6565b90507fffffffffffffffffffffffffffffffffffffffffffffffffffffffffffffffff8114610c8e5781811015610c80576040517f08c379a0000000000000000000000000000000000000000000000000000000008152600401610c7790611536565b60405180910390fd5b610c8d8484848403610a3d565b5b50505050565b600073ffffffffffffffffffffffffffffffffffffffff168373ffffffffffffffffffffffffffffffffffffffff161415610d04576040517f08c379a0000000000000000000000000000000000000000000000000000000008152600401610cfb90611596565b60405180910390fd5b600073ffffffffffffffffffffffffffffffffffffffff168273ffffffffffffffffffffffffffffffffffffffff161415610d74576040517f08c379a0000000000000000000000000000000000000000000000000000000008152600401610d6b906114d6565b60405180910390fd5b610d7f83838361113b565b60008060008573ffffffffffffffffffffffffffffffffffffffff1673ffffffffffffffffffffffffffffffffffffffff16815260200190815260200160002054905081811015610e05576040517f08c379a0000000000000000000000000000000000000000000000000000000008152600401610dfc90611556565b60405180910390fd5b8181036000808673ffffffffffffffffffffffffffffffffffffffff1673ffffffffffffffffffffffffffffffffffffffff16815260200190815260200160002081905550816000808573ffffffffffffffffffffffffffffffffffffffff1673ffffffffffffffffffffffffffffffffffffffff1681526020019081526020016000206000828254610e989190611688565b925050819055508273ffffffffffffffffffffffffffffffffffffffff168473ffffffffffffffffffffffffffffffffffffffff167fddf252ad1be2c89b69c2b068fc378daa952ba7f163c4a11628f55a4df523b3ef84604051610efc9190611636565b60405180910390a3610f0f848484611140565b50505050565b600073ffffffffffffffffffffffffffffffffffffffff168273ffffffffffffffffffffffffffffffffffffffff161415610f85576040517f08c379a0000000000000000000000000000000000000000000000000000000008152600401610f7c90611616565b60405180910390fd5b610f916000838361113b565b8060026000828254610fa39190611688565b92505081905550806000808473ffffffffffffffffffffffffffffffffffffffff1673ffffffffffffffffffffffffffffffffffffffff1681526020019081526020016000206000828254610ff89190611688565b925050819055508173ffffffffffffffffffffffffffffffffffffffff16600073ffffffffffffffffffffffffffffffffffffffff167fddf252ad1be2c89b69c2b068fc378daa952ba7f163c4a11628f55a4df523b3ef8360405161105d9190611636565b60405180910390a361107160008383611140565b5050565b6000600560009054906101000a900473ffffffffffffffffffffffffffffffffffffffff16905081600560006101000a81548173ffffffffffffffffffffffffffffffffffffffff021916908373ffffffffffffffffffffffffffffffffffffffff1602179055508173ffffffffffffffffffffffffffffffffffffffff168173ffffffffffffffffffffffffffffffffffffffff167f8be0079c531659141344cd1fd0a4f28419497f9722a3daafe3b4186f6b6457e060405160405180910390a35050565b505050565b505050565b60008135905061115481611ad4565b92915050565b60008135905061116981611aeb565b92915050565b60006020828403121561118157600080fd5b600061118f84828501611145565b91505092915050565b600080604083850312156111ab57600080fd5b60006111b985828601611145565b92505060206111ca85828601611145565b9150509250929050565b6000806000606084860312156111e957600080fd5b60006111f786828701611145565b935050602061120886828701611145565b92505060406112198682870161115a565b9150509250925092565b6000806040838503121561123657600080fd5b600061124485828601611145565b92505060206112558582860161115a565b9150509250929050565b60006020828403121561127157600080fd5b600061127f8482850161115a565b91505092915050565b611291816116de565b82525050565b6112a0816116f0565b82525050565b60006112b18261166c565b6112bb8185611677565b93506112cb818560208601611733565b6112d4816117f6565b840191505092915050565b60006112ec602383611677565b91506112f782611807565b604082019050919050565b600061130f602683611677565b915061131a82611856565b604082019050919050565b6000611332602283611677565b915061133d826118a5565b604082019050919050565b6000611355601d83611677565b9150611360826118f4565b602082019050919050565b6000611378602683611677565b91506113838261191d565b604082019050919050565b600061139b602083611677565b91506113a68261196c565b602082019050919050565b60006113be602583611677565b91506113c982611995565b604082019050919050565b60006113e1602483611677565b91506113ec826119e4565b604082019050919050565b6000611404600d83611677565b915061140f82611a33565b602082019050919050565b6000611427602583611677565b915061143282611a5c565b604082019050919050565b600061144a601f83611677565b915061145582611aab565b602082019050919050565b6114698161171c565b82525050565b61147881611726565b82525050565b60006020820190506114936000830184611288565b92915050565b60006020820190506114ae6000830184611297565b92915050565b600060208201905081810360008301526114ce81846112a6565b905092915050565b600060208201905081810360008301526114ef816112df565b9050919050565b6000602082019050818103600083015261150f81611302565b9050919050565b6000602082019050818103600083015261152f81611325565b9050919050565b6000602082019050818103600083015261154f81611348565b9050919050565b6000602082019050818103600083015261156f8161136b565b9050919050565b6000602082019050818103600083015261158f8161138e565b9050919050565b600060208201905081810360008301526115af816113b1565b9050919050565b600060208201905081810360008301526115cf816113d4565b9050919050565b600060208201905081810360008301526115ef816113f7565b9050919050565b6000602082019050818103600083015261160f8161141a565b9050919050565b6000602082019050818103600083015261162f8161143d565b9050919050565b600060208201905061164b6000830184611460565b92915050565b6000602082019050611666600083018461146f565b92915050565b600081519050919050565b600082825260208201905092915050565b60006116938261171c565b915061169e8361171c565b9250827fffffffffffffffffffffffffffffffffffffffffffffffffffffffffffffffff038211156116d3576116d2611798565b5b828201905092915050565b60006116e9826116fc565b9050919050565b60008115159050919050565b600073ffffffffffffffffffffffffffffffffffffffff82169050919050565b6000819050919050565b600060ff82169050919050565b60005b83811015611751578082015181840152602081019050611736565b83811115611760576000848401525b50505050565b6000600282049050600182168061177e57607f821691505b60208210811415611792576117916117c7565b5b50919050565b7f4e487b7100000000000000000000000000000000000000000000000000000000600052601160045260246000fd5b7f4e487b7100000000000000000000000000000000000000000000000000000000600052602260045260246000fd5b6000601f19601f8301169050919050565b7f45524332303a207472616e7366657220746f20746865207a65726f206164647260008201527f6573730000000000000000000000000000000000000000000000000000000000602082015250565b7f4f776e61626c653a206e6577206f776e657220697320746865207a65726f206160008201527f6464726573730000000000000000000000000000000000000000000000000000602082015250565b7f45524332303a20617070726f766520746f20746865207a65726f20616464726560008201527f7373000000000000000000000000000000000000000000000000000000000000602082015250565b7f45524332303a20696e73756666696369656e7420616c6c6f77616e6365000000600082015250565b7f45524332303a207472616e7366657220616d6f756e742065786365656473206260008201527f616c616e63650000000000000000000000000000000000000000000000000000602082015250565b7f4f776e61626c653a2063616c6c6572206973206e6f7420746865206f776e6572600082015250565b7f45524332303a207472616e736665722066726f6d20746865207a65726f20616460008201527f6472657373000000000000000000000000000000000000000000000000000000602082015250565b7f45524332303a20617070726f76652066726f6d20746865207a65726f2061646460008201527f7265737300000000000000000000000000000000000000000000000000000000602082015250565b7f4f6e6c79206f70657261746f7200000000000000000000000000000000000000600082015250565b7f45524332303a2064656372656173656420616c6c6f77616e63652062656c6f7760008201527f207a65726f000000000000000000000000000000000000000000000000000000602082015250565b7f45524332303a206d696e7420746f20746865207a65726f206164647265737300600082015250565b611add816116de565b8114611ae857600080fd5b50565b611af48161171c565b8114611aff57600080fd5b5056fea2646970667358221220cfa03e3f6afae7fcd1b23f5912c96084bf5bc16f5c4ef7d4f2d02d720a2d5c2864736f6c63430008040033",
  "linkReferences": {},
  "deployedLinkReferences": {}
}