{
  "_format": "hh-sol-artifact-1",
  "contractName": "SampleGovToken",
  "sourceName": "contracts/tokens/SampleGovToken.sol",
  "abi": [
    {
      "inputs": [],
      "stateMutability": "nonpayable",
      "type": "constructor"
    },
    {
      "anonymous": false,
      "inputs": [
        {
          "indexed": true,
          "internalType": "address",
          "name": "owner",
          "type": "address"
        },
        {
          "indexed": true,
          "internalType": "address",
          "name": "spender",
          "type": "address"
        },
        {
          "indexed": false,
          "internalType": "uint256",
          "name": "value",
          "type": "uint256"
        }
      ],
      "name": "Approval",
      "type": "event"
    },
    {
      "anonymous": false,
      "inputs": [
        {
          "indexed": true,
          "internalType": "address",
          "name": "previousOwner",
          "type": "address"
        },
        {
          "indexed": true,
          "internalType": "address",
          "name": "newOwner",
          "type": "address"
        }
      ],
      "name": "OwnershipTransferred",
      "type": "event"
    },
    {
      "anonymous": false,
      "inputs": [
        {
          "indexed": true,
          "internalType": "address",
          "name": "from",
          "type": "address"
        },
        {
          "indexed": true,
          "internalType": "address",
          "name": "to",
          "type": "address"
        },
        {
          "indexed": false,
          "internalType": "uint256",
          "name": "value",
          "type": "uint256"
        }
      ],
      "name": "Transfer",
      "type": "event"
    },
    {
      "inputs": [
        {
          "internalType": "address",
          "name": "_minter",
          "type": "address"
        }
      ],
      "name": "addMinter",
      "outputs": [],
      "stateMutability": "nonpayable",
      "type": "function"
    },
    {
      "inputs": [
        {
          "internalType": "address",
          "name": "owner",
          "type": "address"
        },
        {
          "internalType": "address",
          "name": "spender",
          "type": "address"
        }
      ],
      "name": "allowance",
      "outputs": [
        {
          "internalType": "uint256",
          "name": "",
          "type": "uint256"
        }
      ],
      "stateMutability": "view",
      "type": "function"
    },
    {
      "inputs": [
        {
          "internalType": "address",
          "name": "spender",
          "type": "address"
        },
        {
          "internalType": "uint256",
          "name": "amount",
          "type": "uint256"
        }
      ],
      "name": "approve",
      "outputs": [
        {
          "internalType": "bool",
          "name": "",
          "type": "bool"
        }
      ],
      "stateMutability": "nonpayable",
      "type": "function"
    },
    {
      "inputs": [
        {
          "internalType": "address",
          "name": "account",
          "type": "address"
        }
      ],
      "name": "balanceOf",
      "outputs": [
        {
          "internalType": "uint256",
          "name": "",
          "type": "uint256"
        }
      ],
      "stateMutability": "view",
      "type": "function"
    },
    {
      "inputs": [],
      "name": "decimals",
      "outputs": [
        {
          "internalType": "uint8",
          "name": "",
          "type": "uint8"
        }
      ],
      "stateMutability": "view",
      "type": "function"
    },
    {
      "inputs": [
        {
          "internalType": "address",
          "name": "spender",
          "type": "address"
        },
        {
          "internalType": "uint256",
          "name": "subtractedValue",
          "type": "uint256"
        }
      ],
      "name": "decreaseAllowance",
      "outputs": [
        {
          "internalType": "bool",
          "name": "",
          "type": "bool"
        }
      ],
      "stateMutability": "nonpayable",
      "type": "function"
    },
    {
      "inputs": [
        {
          "internalType": "address",
          "name": "spender",
          "type": "address"
        },
        {
          "internalType": "uint256",
          "name": "addedValue",
          "type": "uint256"
        }
      ],
      "name": "increaseAllowance",
      "outputs": [
        {
          "internalType": "bool",
          "name": "",
          "type": "bool"
        }
      ],
      "stateMutability": "nonpayable",
      "type": "function"
    },
    {
      "inputs": [
        {
          "internalType": "address",
          "name": "_to",
          "type": "address"
        },
        {
          "internalType": "uint256",
          "name": "_amount",
          "type": "uint256"
        }
      ],
      "name": "mint",
      "outputs": [
        {
          "internalType": "bool",
          "name": "",
          "type": "bool"
        }
      ],
      "stateMutability": "nonpayable",
      "type": "function"
    },
    {
      "inputs": [
        {
          "internalType": "uint256",
          "name": "_amount",
          "type": "uint256"
        }
      ],
      "name": "mint",
      "outputs": [
        {
          "internalType": "bool",
          "name": "",
          "type": "bool"
        }
      ],
      "stateMutability": "nonpayable",
      "type": "function"
    },
    {
      "inputs": [
        {
          "internalType": "address",
          "name": "",
          "type": "address"
        }
      ],
      "name": "minterList",
      "outputs": [
        {
          "internalType": "bool",
          "name": "",
          "type": "bool"
        }
      ],
      "stateMutability": "view",
      "type": "function"
    },
    {
      "inputs": [],
      "name": "name",
      "outputs": [
        {
          "internalType": "string",
          "name": "",
          "type": "string"
        }
      ],
      "stateMutability": "view",
      "type": "function"
    },
    {
      "inputs": [],
      "name": "owner",
      "outputs": [
        {
          "internalType": "address",
          "name": "",
          "type": "address"
        }
      ],
      "stateMutability": "view",
      "type": "function"
    },
    {
      "inputs": [
        {
          "internalType": "address",
          "name": "_minter",
          "type": "address"
        }
      ],
      "name": "removeMinter",
      "outputs": [],
      "stateMutability": "nonpayable",
      "type": "function"
    },
    {
      "inputs": [],
      "name": "renounceOwnership",
      "outputs": [],
      "stateMutability": "nonpayable",
      "type": "function"
    },
    {
      "inputs": [],
      "name": "symbol",
      "outputs": [
        {
          "internalType": "string",
          "name": "",
          "type": "string"
        }
      ],
      "stateMutability": "view",
      "type": "function"
    },
    {
      "inputs": [],
      "name": "totalSupply",
      "outputs": [
        {
          "internalType": "uint256",
          "name": "",
          "type": "uint256"
        }
      ],
      "stateMutability": "view",
      "type": "function"
    },
    {
      "inputs": [
        {
          "internalType": "address",
          "name": "to",
          "type": "address"
        },
        {
          "internalType": "uint256",
          "name": "amount",
          "type": "uint256"
        }
      ],
      "name": "transfer",
      "outputs": [
        {
          "internalType": "bool",
          "name": "",
          "type": "bool"
        }
      ],
      "stateMutability": "nonpayable",
      "type": "function"
    },
    {
      "inputs": [
        {
          "internalType": "address",
          "name": "from",
          "type": "address"
        },
        {
          "internalType": "address",
          "name": "to",
          "type": "address"
        },
        {
          "internalType": "uint256",
          "name": "amount",
          "type": "uint256"
        }
      ],
      "name": "transferFrom",
      "outputs": [
        {
          "internalType": "bool",
          "name": "",
          "type": "bool"
        }
      ],
      "stateMutability": "nonpayable",
      "type": "function"
    },
    {
      "inputs": [
        {
          "internalType": "address",
          "name": "newOwner",
          "type": "address"
        }
      ],
      "name": "transferOwnership",
      "outputs": [],
      "stateMutability": "nonpayable",
      "type": "function"
    }
  ],
  "bytecode": "0x60806040523480156200001157600080fd5b506040518060400160405280601781526020017f53616d706c6520476f7665726e616e636520546f6b656e0000000000000000008152506040518060400160405280600e81526020017f53414d504c45474f56544f4b454e000000000000000000000000000000000000815250816003908051906020019062000096929190620001a6565b508060049080519060200190620000af929190620001a6565b505050620000d2620000c6620000d860201b60201c565b620000e060201b60201c565b620002bb565b600033905090565b6000600560009054906101000a900473ffffffffffffffffffffffffffffffffffffffff16905081600560006101000a81548173ffffffffffffffffffffffffffffffffffffffff021916908373ffffffffffffffffffffffffffffffffffffffff1602179055508173ffffffffffffffffffffffffffffffffffffffff168173ffffffffffffffffffffffffffffffffffffffff167f8be0079c531659141344cd1fd0a4f28419497f9722a3daafe3b4186f6b6457e060405160405180910390a35050565b828054620001b49062000256565b90600052602060002090601f016020900481019282620001d8576000855562000224565b82601f10620001f357805160ff191683800117855562000224565b8280016001018555821562000224579182015b828111156200022357825182559160200191906001019062000206565b5b50905062000233919062000237565b5090565b5b808211156200025257600081600090555060010162000238565b5090565b600060028204905060018216806200026f57607f821691505b602082108114156200028657620002856200028c565b5b50919050565b7f4e487b7100000000000000000000000000000000000000000000000000000000600052602260045260246000fd5b611c5580620002cb6000396000f3fe608060405234801561001057600080fd5b50600436106101215760003560e01c806370a08231116100ad578063a0712d6811610071578063a0712d681461031e578063a457c2d71461034e578063a9059cbb1461037e578063dd62ed3e146103ae578063f2fde38b146103de57610121565b806370a082311461028c578063715018a6146102bc5780638da5cb5b146102c657806395d89b41146102e4578063983b2d561461030257610121565b80633092afd5116100f45780633092afd5146101c2578063313ce567146101de57806339509351146101fc57806340c10f191461022c57806352a5ec861461025c57610121565b806306fdde0314610126578063095ea7b31461014457806318160ddd1461017457806323b872dd14610192575b600080fd5b61012e6103fa565b60405161013b91906115d1565b60405180910390f35b61015e60048036038101906101599190611340565b61048c565b60405161016b91906115b6565b60405180910390f35b61017c6104af565b6040516101899190611753565b60405180910390f35b6101ac60048036038101906101a791906112f1565b6104b9565b6040516101b991906115b6565b60405180910390f35b6101dc60048036038101906101d7919061128c565b6104e8565b005b6101e66105bf565b6040516101f3919061176e565b60405180910390f35b61021660048036038101906102119190611340565b6105c8565b60405161022391906115b6565b60405180910390f35b61024660048036038101906102419190611340565b6105ff565b60405161025391906115b6565b60405180910390f35b6102766004803603810190610271919061128c565b6106a1565b60405161028391906115b6565b60405180910390f35b6102a660048036038101906102a1919061128c565b6106c1565b6040516102b39190611753565b60405180910390f35b6102c4610709565b005b6102ce610791565b6040516102db919061159b565b60405180910390f35b6102ec6107bb565b6040516102f991906115d1565b60405180910390f35b61031c6004803603810190610317919061128c565b61084d565b005b6103386004803603810190610333919061137c565b610924565b60405161034591906115b6565b60405180910390f35b61036860048036038101906103639190611340565b610939565b60405161037591906115b6565b60405180910390f35b61039860048036038101906103939190611340565b6109b0565b6040516103a591906115b6565b60405180910390f35b6103c860048036038101906103c391906112b5565b6109d3565b6040516103d59190611753565b60405180910390f35b6103f860048036038101906103f3919061128c565b610a5a565b005b60606003805461040990611883565b80601f016020809104026020016040519081016040528092919081815260200182805461043590611883565b80156104825780601f1061045757610100808354040283529160200191610482565b820191906000526020600020905b81548152906001019060200180831161046557829003601f168201915b5050505050905090565b600080610497610b52565b90506104a4818585610b5a565b600191505092915050565b6000600254905090565b6000806104c4610b52565b90506104d1858285610d25565b6104dc858585610db1565b60019150509392505050565b6104f0610b52565b73ffffffffffffffffffffffffffffffffffffffff1661050e610791565b73ffffffffffffffffffffffffffffffffffffffff1614610564576040517f08c379a000000000000000000000000000000000000000000000000000000000815260040161055b906116b3565b60405180910390fd5b6000600660008373ffffffffffffffffffffffffffffffffffffffff1673ffffffffffffffffffffffffffffffffffffffff16815260200190815260200160002060006101000a81548160ff02191690831515021790555050565b60006012905090565b6000806105d3610b52565b90506105f48185856105e585896109d3565b6105ef91906117a5565b610b5a565b600191505092915050565b6000600660003373ffffffffffffffffffffffffffffffffffffffff1673ffffffffffffffffffffffffffffffffffffffff16815260200190815260200160002060009054906101000a900460ff1661068d576040517f08c379a000000000000000000000000000000000000000000000000000000000815260040161068490611693565b60405180910390fd5b6106978383611032565b6001905092915050565b60066020528060005260406000206000915054906101000a900460ff1681565b60008060008373ffffffffffffffffffffffffffffffffffffffff1673ffffffffffffffffffffffffffffffffffffffff168152602001908152602001600020549050919050565b610711610b52565b73ffffffffffffffffffffffffffffffffffffffff1661072f610791565b73ffffffffffffffffffffffffffffffffffffffff1614610785576040517f08c379a000000000000000000000000000000000000000000000000000000000815260040161077c906116b3565b60405180910390fd5b61078f6000611192565b565b6000600560009054906101000a900473ffffffffffffffffffffffffffffffffffffffff16905090565b6060600480546107ca90611883565b80601f01602080910402602001604051908101604052809291908181526020018280546107f690611883565b80156108435780601f1061081857610100808354040283529160200191610843565b820191906000526020600020905b81548152906001019060200180831161082657829003601f168201915b5050505050905090565b610855610b52565b73ffffffffffffffffffffffffffffffffffffffff16610873610791565b73ffffffffffffffffffffffffffffffffffffffff16146108c9576040517f08c379a00000000000000000000000000000000000000000000000000000000081526004016108c0906116b3565b60405180910390fd5b6001600660008373ffffffffffffffffffffffffffffffffffffffff1673ffffffffffffffffffffffffffffffffffffffff16815260200190815260200160002060006101000a81548160ff02191690831515021790555050565b60006109303383611032565b60019050919050565b600080610944610b52565b9050600061095282866109d3565b905083811015610997576040517f08c379a000000000000000000000000000000000000000000000000000000000815260040161098e90611713565b60405180910390fd5b6109a48286868403610b5a565b60019250505092915050565b6000806109bb610b52565b90506109c8818585610db1565b600191505092915050565b6000600160008473ffffffffffffffffffffffffffffffffffffffff1673ffffffffffffffffffffffffffffffffffffffff16815260200190815260200160002060008373ffffffffffffffffffffffffffffffffffffffff1673ffffffffffffffffffffffffffffffffffffffff16815260200190815260200160002054905092915050565b610a62610b52565b73ffffffffffffffffffffffffffffffffffffffff16610a80610791565b73ffffffffffffffffffffffffffffffffffffffff1614610ad6576040517f08c379a0000000000000000000000000000000000000000000000000000000008152600401610acd906116b3565b60405180910390fd5b600073ffffffffffffffffffffffffffffffffffffffff168173ffffffffffffffffffffffffffffffffffffffff161415610b46576040517f08c379a0000000000000000000000000000000000000000000000000000000008152600401610b3d90611613565b60405180910390fd5b610b4f81611192565b50565b600033905090565b600073ffffffffffffffffffffffffffffffffffffffff168373ffffffffffffffffffffffffffffffffffffffff161415610bca576040517f08c379a0000000000000000000000000000000000000000000000000000000008152600401610bc1906116f3565b60405180910390fd5b600073ffffffffffffffffffffffffffffffffffffffff168273ffffffffffffffffffffffffffffffffffffffff161415610c3a576040517f08c379a0000000000000000000000000000000000000000000000000000000008152600401610c3190611633565b60405180910390fd5b80600160008573ffffffffffffffffffffffffffffffffffffffff1673ffffffffffffffffffffffffffffffffffffffff16815260200190815260200160002060008473ffffffffffffffffffffffffffffffffffffffff1673ffffffffffffffffffffffffffffffffffffffff168152602001908152602001600020819055508173ffffffffffffffffffffffffffffffffffffffff168373ffffffffffffffffffffffffffffffffffffffff167f8c5be1e5ebec7d5bd14f71427d1e84f3dd0314c0f7b2291e5b200ac8c7c3b92583604051610d189190611753565b60405180910390a3505050565b6000610d3184846109d3565b90507fffffffffffffffffffffffffffffffffffffffffffffffffffffffffffffffff8114610dab5781811015610d9d576040517f08c379a0000000000000000000000000000000000000000000000000000000008152600401610d9490611653565b60405180910390fd5b610daa8484848403610b5a565b5b50505050565b600073ffffffffffffffffffffffffffffffffffffffff168373ffffffffffffffffffffffffffffffffffffffff161415610e21576040517f08c379a0000000000000000000000000000000000000000000000000000000008152600401610e18906116d3565b60405180910390fd5b600073ffffffffffffffffffffffffffffffffffffffff168273ffffffffffffffffffffffffffffffffffffffff161415610e91576040517f08c379a0000000000000000000000000000000000000000000000000000000008152600401610e88906115f3565b60405180910390fd5b610e9c838383611258565b60008060008573ffffffffffffffffffffffffffffffffffffffff1673ffffffffffffffffffffffffffffffffffffffff16815260200190815260200160002054905081811015610f22576040517f08c379a0000000000000000000000000000000000000000000000000000000008152600401610f1990611673565b60405180910390fd5b8181036000808673ffffffffffffffffffffffffffffffffffffffff1673ffffffffffffffffffffffffffffffffffffffff16815260200190815260200160002081905550816000808573ffffffffffffffffffffffffffffffffffffffff1673ffffffffffffffffffffffffffffffffffffffff1681526020019081526020016000206000828254610fb591906117a5565b925050819055508273ffffffffffffffffffffffffffffffffffffffff168473ffffffffffffffffffffffffffffffffffffffff167fddf252ad1be2c89b69c2b068fc378daa952ba7f163c4a11628f55a4df523b3ef846040516110199190611753565b60405180910390a361102c84848461125d565b50505050565b600073ffffffffffffffffffffffffffffffffffffffff168273ffffffffffffffffffffffffffffffffffffffff1614156110a2576040517f08c379a000000000000000000000000000000000000000000000000000000000815260040161109990611733565b60405180910390fd5b6110ae60008383611258565b80600260008282546110c091906117a5565b92505081905550806000808473ffffffffffffffffffffffffffffffffffffffff1673ffffffffffffffffffffffffffffffffffffffff168152602001908152602001600020600082825461111591906117a5565b925050819055508173ffffffffffffffffffffffffffffffffffffffff16600073ffffffffffffffffffffffffffffffffffffffff167fddf252ad1be2c89b69c2b068fc378daa952ba7f163c4a11628f55a4df523b3ef8360405161117a9190611753565b60405180910390a361118e6000838361125d565b5050565b6000600560009054906101000a900473ffffffffffffffffffffffffffffffffffffffff16905081600560006101000a81548173ffffffffffffffffffffffffffffffffffffffff021916908373ffffffffffffffffffffffffffffffffffffffff1602179055508173ffffffffffffffffffffffffffffffffffffffff168173ffffffffffffffffffffffffffffffffffffffff167f8be0079c531659141344cd1fd0a4f28419497f9722a3daafe3b4186f6b6457e060405160405180910390a35050565b505050565b505050565b60008135905061127181611bf1565b92915050565b60008135905061128681611c08565b92915050565b60006020828403121561129e57600080fd5b60006112ac84828501611262565b91505092915050565b600080604083850312156112c857600080fd5b60006112d685828601611262565b92505060206112e785828601611262565b9150509250929050565b60008060006060848603121561130657600080fd5b600061131486828701611262565b935050602061132586828701611262565b925050604061133686828701611277565b9150509250925092565b6000806040838503121561135357600080fd5b600061136185828601611262565b925050602061137285828601611277565b9150509250929050565b60006020828403121561138e57600080fd5b600061139c84828501611277565b91505092915050565b6113ae816117fb565b82525050565b6113bd8161180d565b82525050565b60006113ce82611789565b6113d88185611794565b93506113e8818560208601611850565b6113f181611913565b840191505092915050565b6000611409602383611794565b915061141482611924565b604082019050919050565b600061142c602683611794565b915061143782611973565b604082019050919050565b600061144f602283611794565b915061145a826119c2565b604082019050919050565b6000611472601d83611794565b915061147d82611a11565b602082019050919050565b6000611495602683611794565b91506114a082611a3a565b604082019050919050565b60006114b8600b83611794565b91506114c382611a89565b602082019050919050565b60006114db602083611794565b91506114e682611ab2565b602082019050919050565b60006114fe602583611794565b915061150982611adb565b604082019050919050565b6000611521602483611794565b915061152c82611b2a565b604082019050919050565b6000611544602583611794565b915061154f82611b79565b604082019050919050565b6000611567601f83611794565b915061157282611bc8565b602082019050919050565b61158681611839565b82525050565b61159581611843565b82525050565b60006020820190506115b060008301846113a5565b92915050565b60006020820190506115cb60008301846113b4565b92915050565b600060208201905081810360008301526115eb81846113c3565b905092915050565b6000602082019050818103600083015261160c816113fc565b9050919050565b6000602082019050818103600083015261162c8161141f565b9050919050565b6000602082019050818103600083015261164c81611442565b9050919050565b6000602082019050818103600083015261166c81611465565b9050919050565b6000602082019050818103600083015261168c81611488565b9050919050565b600060208201905081810360008301526116ac816114ab565b9050919050565b600060208201905081810360008301526116cc816114ce565b9050919050565b600060208201905081810360008301526116ec816114f1565b9050919050565b6000602082019050818103600083015261170c81611514565b9050919050565b6000602082019050818103600083015261172c81611537565b9050919050565b6000602082019050818103600083015261174c8161155a565b9050919050565b6000602082019050611768600083018461157d565b92915050565b6000602082019050611783600083018461158c565b92915050565b600081519050919050565b600082825260208201905092915050565b60006117b082611839565b91506117bb83611839565b9250827fffffffffffffffffffffffffffffffffffffffffffffffffffffffffffffffff038211156117f0576117ef6118b5565b5b828201905092915050565b600061180682611819565b9050919050565b60008115159050919050565b600073ffffffffffffffffffffffffffffffffffffffff82169050919050565b6000819050919050565b600060ff82169050919050565b60005b8381101561186e578082015181840152602081019050611853565b8381111561187d576000848401525b50505050565b6000600282049050600182168061189b57607f821691505b602082108114156118af576118ae6118e4565b5b50919050565b7f4e487b7100000000000000000000000000000000000000000000000000000000600052601160045260246000fd5b7f4e487b7100000000000000000000000000000000000000000000000000000000600052602260045260246000fd5b6000601f19601f8301169050919050565b7f45524332303a207472616e7366657220746f20746865207a65726f206164647260008201527f6573730000000000000000000000000000000000000000000000000000000000602082015250565b7f4f776e61626c653a206e6577206f776e657220697320746865207a65726f206160008201527f6464726573730000000000000000000000000000000000000000000000000000602082015250565b7f45524332303a20617070726f766520746f20746865207a65726f20616464726560008201527f7373000000000000000000000000000000000000000000000000000000000000602082015250565b7f45524332303a20696e73756666696369656e7420616c6c6f77616e6365000000600082015250565b7f45524332303a207472616e7366657220616d6f756e742065786365656473206260008201527f616c616e63650000000000000000000000000000000000000000000000000000602082015250565b7f4f6e6c79206d696e746572000000000000000000000000000000000000000000600082015250565b7f4f776e61626c653a2063616c6c6572206973206e6f7420746865206f776e6572600082015250565b7f45524332303a207472616e736665722066726f6d20746865207a65726f20616460008201527f6472657373000000000000000000000000000000000000000000000000000000602082015250565b7f45524332303a20617070726f76652066726f6d20746865207a65726f2061646460008201527f7265737300000000000000000000000000000000000000000000000000000000602082015250565b7f45524332303a2064656372656173656420616c6c6f77616e63652062656c6f7760008201527f207a65726f000000000000000000000000000000000000000000000000000000602082015250565b7f45524332303a206d696e7420746f20746865207a65726f206164647265737300600082015250565b611bfa816117fb565b8114611c0557600080fd5b50565b611c1181611839565b8114611c1c57600080fd5b5056fea2646970667358221220441472b38867cb6b55aae6839416eb57b7bd27d1e3d2fad8be6733d36d31817264736f6c63430008040033",
  "linkReferences": {},
  "deployedLinkReferences": {}
}